{
  "contractName": "Funder",
  "abi": [
    {
      "inputs": [],
      "name": "numOfFunders",
      "outputs": [
        {
          "internalType": "uint256",
          "name": "",
          "type": "uint256"
        }
      ],
      "stateMutability": "view",
      "type": "function"
    },
    {
      "stateMutability": "payable",
      "type": "receive"
    },
    {
      "inputs": [],
      "name": "transfer",
      "outputs": [],
      "stateMutability": "payable",
      "type": "function"
    },
    {
      "inputs": [
        {
          "internalType": "uint256",
          "name": "withdrawAmount",
          "type": "uint256"
        }
      ],
      "name": "withdraw",
      "outputs": [],
      "stateMutability": "nonpayable",
      "type": "function"
    }
  ],
  "bytecode": "0x608060405234801561000f575f80fd5b5061041a8061001d5f395ff3fe608060405260043610610037575f3560e01c80632e1a7d4d146100425780638a4068dd1461006a578063af7f2c9b146100745761003e565b3661003e57005b5f80fd5b34801561004d575f80fd5b5061006860048036038101906100639190610217565b61009e565b005b610072610173565b005b34801561007f575f80fd5b506100886101db565b6040516100959190610251565b60405180910390f35b671bc16d674ec800008111156100e9576040517f08c379a00000000000000000000000000000000000000000000000000000000081526004016100e0906102ea565b60405180910390fd5b8047101561012c576040517f08c379a000000000000000000000000000000000000000000000000000000000815260040161012390610352565b60405180910390fd5b3373ffffffffffffffffffffffffffffffffffffffff166108fc8290811502906040515f60405180830381858888f1935050505015801561016f573d5f803e3d5ffd5b5050565b3360015f805481526020019081526020015f205f6101000a81548173ffffffffffffffffffffffffffffffffffffffff021916908373ffffffffffffffffffffffffffffffffffffffff1602179055505f808154809291906101d49061039d565b9190505550565b5f5481565b5f80fd5b5f819050919050565b6101f6816101e4565b8114610200575f80fd5b50565b5f81359050610211816101ed565b92915050565b5f6020828403121561022c5761022b6101e0565b5b5f61023984828501610203565b91505092915050565b61024b816101e4565b82525050565b5f6020820190506102645f830184610242565b92915050565b5f82825260208201905092915050565b7f63616e6e6f74207769746864726177206d6f7265207468616e203220657468655f8201527f7273000000000000000000000000000000000000000000000000000000000000602082015250565b5f6102d460228361026a565b91506102df8261027a565b604082019050919050565b5f6020820190508181035f830152610301816102c8565b9050919050565b7f496e73756666696369656e742062616c616e636520696e20636f6e74726163745f82015250565b5f61033c60208361026a565b915061034782610308565b602082019050919050565b5f6020820190508181035f83015261036981610330565b9050919050565b7f4e487b71000000000000000000000000000000000000000000000000000000005f52601160045260245ffd5b5f6103a7826101e4565b91507fffffffffffffffffffffffffffffffffffffffffffffffffffffffffffffffff82036103d9576103d8610370565b5b60018201905091905056fea2646970667358221220d640fff05340d04625824fa4d39e01a987b61345c21b49e3d7c79158736c952364736f6c63430008150033",
  "immutableReferences": {},
  "source": "// SPDX-License-Identifier: MIT\r\npragma solidity >=0.4.22 <0.9.0;\r\n\r\ncontract Funder {\r\n    uint public numOfFunders;\r\n    mapping(uint => address) private funders;\r\n\r\n    // Function to receive Ether. msg.data must be empty\r\n    receive() external payable {}\r\n\r\n    // Function to handle Ether transfers\r\n    function transfer() external payable {\r\n        funders[numOfFunders] = msg.sender;\r\n        numOfFunders++;\r\n    }\r\n\r\n    // Function to withdraw Ether\r\n    function withdraw(uint withdrawAmount) external {\r\n        require(withdrawAmount <= 2 ether, \"cannot withdraw more than 2 ethers\");\r\n        require(address(this).balance >= withdrawAmount, \"Insufficient balance in contract\");\r\n        payable(msg.sender).transfer(withdrawAmount);\r\n    }\r\n}\r\n",
  "sourcePath": "C:\\Users\\saumy\\OneDrive\\Desktop\\DAPP2\\contracts\\Funder.sol",
  "compiler": {
    "name": "solc",
    "version": "0.8.21+commit.d9974bed.Emscripten.clang"
  },
  "schemaVersion": "3.4.16",
  "updatedAt": "2024-07-28T05:29:34.231Z",
  "devdoc": {
    "kind": "dev",
    "methods": {},
    "version": 1
  },
  "userdoc": {
    "kind": "user",
    "methods": {},
    "version": 1
  }
}